:020000020000FC
:1000000030E090E020E010E000E0E0E0FFEFF1B948
:100010000E944100909592B923B1203011F40C94C4
:100020000A001F9B39F42095922790950E94410069
:100030000C940A00E395E13011F0E23041F0909524
:10004000092F9927F2B90E9441000C940A0090955B
:10005000192FF2B90E9441001124189B0C94320010
:100060000C942C00010F00950C943600F2B90E94FC
:10007000410002B90E944100189B0C9400000C94AE
:1000800036004FE05FEF6FEF6A95F1F75A95D9F7B9
:060090004A95C1F7089536
:00000001FF
