:020000020000FC
:10000000B5E0A0E015E51D931AEA1C931C912E9112
:10001000210F2F3FF1F50FEF01B941E04E3069F1AB
:100020004F930E9418005F915D9343950C940E00CE
:100030004F935F93CF93DF93CDB7DEB729964A9165
:10004000413019F0423009F007C001E00883DF9128
:10005000CF915F914F9108954A954F930E94180058
:100060005F914A954F930E9418004F91540F588307
:10007000DF91CF915F914F910895A0E00D91009590
:1000800001C0FCCF02B90E944B0012B90E944B0084
:10009000F5CF1FEF12B946E45FEF6FEF6A95F1F706
:0A00A0005A95D9F74A95C1F7089563
:00000001FF
