:020000020000FC
:100000000FEF01B9B5E0A0E00FEF0DBF01E20EBFA9
:100010002DE0239531E0321761F13F930E941400E7
:100020004F914D933395F7CF3F934F93CF93DF93FA
:10003000CDB7DEB729963A91313019F0323009F058
:1000400007C001E00883DF91CF914F913F91089560
:100050003A953F930E9414004F913A953F930E9426
:1000600014003F91430F4883DF91CF914F913F910F
:100070000895A0E00D91009502C0FCCF1FEF02B9DA
:100080000E94460012B90E944600F4CF60EA70EA6E
:1000900080EA8A95F1F77A95D9F76A95C1F70895BC
:00000001FF
